:020000041000EA
:4000000000400208230100100D00000085010010000000000000000000000000000000000000000000000000000000008101001000000000000000008101001081010010E9
:400040008101001081010010810100108101001081010010810100108101001081010010810100108101001081010010810100108101001081010010810100108101001060
:400080008101001081010010810100108101001081010010810100108101001081010010810100108101001081010010810100108101001081010010810100108101001020
:4000C00010B5064C2378002B07D1054B002B02D0044800E000BF0123237010BD3C06000800000000E8230010084B10B5002B03D00749084800E000BF07480368002B00D11F
:4001000010BD064B002BFBD09847F9E70000000040060008E8230010E8000008000000007047FFF7FDFF72B60F4C104DAC4209DA21686268A368043B02DBC858D050FAE79E
:400140000C34F3E70A490B4A0020521A02DD043A8850FCDC084809490860BFF34F8F00F005F900F01DF8FEE7EC230010042400103C060008140800080000000808ED00E050
:40018000FEE7FEE700B504207146084202D0EFF3098001E0EFF30880043001F0C1FAFEE710B562B6014800F067F9FEE70000081010B5002001F030F810BDC04670B562493A
:4001C000E0239B00CB580F2213401A00D0329200525807210A40032A05D0042A06D0002A12D15A4814E05A4A106811E01A00C0329200554952581F210A40112A06D0132A7C
:4002000004D0FA20C00103E0524801E080200002002B36D14C4BB222D2009A5801211140B125ED005A59120F032422405B591B0F1C4207D0444C63591B0F03242340012BDC
:4002400002D102E0012300E00023002B01D0002901D1032A4BD13C4BB022D2009D58AD03AD0B3D495958C904C90C9C58240E01231C40013401F05CFD6843210001F058FDCA
:4002800035E0012B33D1304BC822D2009A5801251540C024E4001A59120F03210A401B591B0F194207D028490B591B0F03210B40012B02D102E0012300E00023002B01D049
:4002C000002D01D1032A12D11F4DC022D200AB587F210B40A958090A1F263140AC58240C3440584301F024FD210001F021FDE0239B00154AD3581B0903221340D840144C56
:400300006060164B1D692D0AFC32154001351969090E013101F00CFDA060290001F008FD0500E06020610E4BC0180E4901F000FD20750D4BE818FA21890001F0F9FCA0618E
:40034000C003E06170BDC0460000264000127A00C000000800366E0184050000000021403F420F0040420F00E703000010B5284801F0D8FC274CB022D200A3585B005B0828
:40038000A350E0218900635830208343635080235B04A350204A214BE250A02292010433E250FF221E4BE25001F0AAFCC0225200A35801218B43A35000F058FAFFF7FEFEE8
:4003C000B0235B055B78002B04D0B0235B055B78DBB200E02123212B03D1124B0022DA605A60114C22008021042000F0BBFC2000103000F04FFD0D4B1A685123D35C002B7F
:4004000002D00B4800F0BCFD00F084FB10BDC046302300100000264001000200840500008C050000E00023405806000810080008981E00108023024AD358032018407047EB
:400440000000214010B501F0FCF9084980228C58074B2340074C23438B508823034AD358DB06FAD501F0F1F910BDC04600002140FCFF00000100FA0570B50500830504D0ED
:40048000E821FF310F4801F01DF901F0DAF90400FFF7D0FF032801D1FFF7D4FF0A4AB0239B00D55080215058084B03400848034353508823044AD358DB06FAD5200001F06E
:4004C000C4F970BDCC1E001000002140FCFF00000300FA05FEE7C0463023084A1360084A136080221206074B1A6080221203064B1A60064A064B1A607047C0461020314071
:400500001420314000001D4100031D4101001180000E1F4130B587B0C149A022D2008B58032083438B50BF4A116808688823CB58C3181868BC490840186013681868842473
:400540001B59C01803681B021B0A80256D042B430360106805680359EB1818680140196013683E229A5C002A06D0AD48E02189004258753CA24342503E229A5C002A06D0B5
:40058000A748E021890042583024A24342503E229B5C002B07D0A249E02292008B588020000603438B500021012000F067FE0021022000F063FE0021032000F05FFE0021FE
:4005C000042000F05BFE0021002000F057FE01A8964903000A0032CA32C312CA12C300F07BFE002802D00420FFF774FF8C49904A8B588020000603438B508E4800F028FF9B
:40060000002802D00420FFF765FF854C8A4BE1588A4A0A40E250E158894A0A40E250E25880252D062A43E250043BE158854A0A40E250E158844A0A40802189010A43E2501C
:40064000E258802109020A43E250804A1168804B0B40802149000B431360002001F032FB7C4BE2581543E550E158012291430A43E2506421002001F06BF86A4B1B683F2204
:400680009A5C052A06D970229A5C01210A407249986842509A6874215B5AD2185168624B0B408C2189010B4353605E4B1B6873229A5C0321914070229A5C7220185C140088
:4006C00084402143012002400A43802109060A438021C900986842509A6852583F229A5C062A03D900215D4A986881509A6874215B5AD21811684C4B0B40F82149010B433F
:400700001360484B1B687322995C703A8A40110070229A5C7220185C82400A43802109060A438021C900986842509A6852583F229A5C132A06D970229A5C03210A404849E5
:40074000986842509A6874215B5AD218D168364B0B40C42189010B43D360324B1B6873229A5C03200400944070229A5C7221595C15008D402900214302400A4380210906B8
:400780000A438021C900986842509A6852583F229A5C142A07D970229A5C03210A40C5210901986842503F229A5C152A06D970229A5C03210A402B49986842503F229A5C8F
:4007C000392A06D970229A5C02210A402649986842509A6874215B5AD2189168124B0B40C42189010B4393600E4B1A687323D35C032199407023D35C7220105C1C008440FD
:400800002143022003400B43802109060B438021C9009068435093685B5807B030BDC0460000264010080008FF00FFFFE41E0010087F0000400D030004050000FEFCFFFFE9
:40084000FFFF00FFFFF0FFFFFF8FFFFF00002740FFFCFFFF0C050000140C0000180C00004C0C0000540C0000E40C000070B58AB09621002000F06CFF00F042FF002814D1D6
:4008800000F02EFFC0235B003C4AD358DB0705D411003B4A8B585B005B088B503749384A8B588020000603438B50012001F0A2F9344A516C344B0B40E82189010B43536469
:4008C000536C1B0AFF2213403A2B07D12D4A516C2E4B0B40E82189010B435364FFF71AFE0F222B4B1A602B4A2B4B1A6001AC2B4D22002B00143343CB43C243CB43C243CB52
:4009000043C22100264800F00DF922002B00383343CB43C243CB43C243CB43C22100214800F000F922002B005C3323CB23C223CB23C223CB23C221001B4800F0F3F81B4DAD
:4009400023002A0043CA43C343CA43C343CA43C32100174800F0E6F822002B00243323CB23C223CB23C223CB23C22100114800F0D9F8FFF7B1FD0AB070BDC0460000264054
:400980000C05000000002740FF00FFFFFFC5FFDF000067400701010000026740E41E0010000032408002324000033240641F00108003324000063240214B984230D00ED8AE
:4009C000402831D004D800281FD010282AD031E080282BD080235B00984229D02AE0194B984229D007D8A0231B0698420DD0164B984212D01EE0154B98420AD0144B9842C1
:400A000009D0144B984215D101E0002016E0124814E0124812E0124810E0A020C0030DE007480BE00F4809E00F4807E00F4805E0034803E00E4801E0A420C0037047C046D6
:400A400006005200010000F0090000A0040000F0050000F0030000F0010052000200520003005200010050000200500005005200FF00520070B5124B1A683123D35C002BAF
:400A800004D1C421FF310F4800F01CFE0C4B1D682C00B423EB582A6A944663441B68002B0BDB094B1868FFF787FF6B6801229A6063689B68002BFBD100E0044870BDC046BC
:400AC00010080008AC1F0010E80700080200500010B50D4B1861002805D002230370FD33437000234380094B1B6850229A5C002A08D051229B5C002B04D04F3A044900201E
:400B000000F0F8FA10BDC046E8070008100800086101000810B502481430FFF7D9FF10BDE807000870B505000C0000285DD000295DD0FF230A689A4303D099212D4800F056
:400B4000C1FDFF2322699A4303D09A21294800F0B9FDA3685B0D03D09B21264800F0B2FD63685B0A03D09C21224800F0ABFDE3695B0F03D09D211F4800F0A4FD236A5B0F81
:400B800003D09E211B4800F09DFD1B4A11688B69EB1ADB0949691B01CB18216829607D211068415C6918E06808607E211068415C6918206908607F211068415C691860692F
:400BC00008607C211068415C6918A06808606168A961116880228A5CAD18A2692A60E2691A60226A5A60002002E0044800E0034870BDC046EC1F00101008000801005A006F
:400C000070B504000D000A4B1A68B423D3581B181B68002B0ADA0B0C03D00649064800F051FD2D042D0C6560002000E0034870BD10080008D50200006C20001001008A0056
:400C400070B505000C000368002B01DA002300E0084B002B0BD1EA60230C03D00649074800F030FD2404240CAC60002000E0014870BDC04601008A00BB0200006C200010A5
:400C800070B505000C1E03D19921084800F01AFD074B1A68B423D3585B191B68002B03DAEB682360002000E0024870BDAC2000101008000801008A0070B504000D00234BAE
:400CC0001A683123D35C834236D9002936D00B68DB0635D13123D35C984204D3C421FF311B4800F0EFFC194B1B681A6AB0215B5A5C431419174E34602B68DA0800216868EF
:400D000001F0A2F800212000FFF77AFF3468002D03D111490E4800F0D5FC2A0000212000FFF78EFF00280DD10A4B18680021FFF767FF002808D108E0084806E0074804E0D2
:400D4000064802E0064800E0054870BD100800086C200010000800089303000003018A0001018A0010B50400002A17D1002915D1124B1A683123D35C984204D3C421FF310D
:400D80000F4800F09FFC0D4B1B681A6AB0215B5A5C4314190B4B1C6000200EE0002A09D0002909D0074B59609A60191D2000FFF783FF02E0044800E0034810BD10080008A2
:400DC0006C2000100008000803018A00F0B583B00D001C4B1B68DC68236883422DD947097B01C01A012383401E00002903D100F028FD019001E000230193124B1868036822
:400E0000002B01DA002300E00F4B002B0ED16368BF00DF193B68334203D0B3433B60002400E00A4C0021FFF7EBFE00E0084C002D04D1019800F009FD00E0064C200003B023
:400E4000F0BDC0460008000801008A00020188000301880004018A000A4B1B68DA68136883420BD943095901401A0121814052689B009B580B4203D0034802E0034800E09D
:400E800003487047000800080101880004018A0000018800034B1B68002B01D1014B18607047C0460C080008F0B5474680B404000F0090461E002D4B1B68002B03D1B521D6
:400EC0002B4800F0FFFB294B1B682C2060431C18FF22150035402560330A13406360360CA660244B1A683123D35C9D4204D3C421FF31214800F0E6FB1E4B1A68B023D35A4C
:400F00006B43116A8C466344236166683223D35C9E4204D3E021FF31174800F0D3FB154B1B681D6A80367601AD196561A668330C04D0FF214900104800F0C4FB330C03D06E
:400F40000E490D4800F0BEFB3604330C1E43AE604346E36127620023A361069B002B02D000229B5EA38104BC9046F0BD0C080008EC200010100800086C200010FF010000A3
:400F8000F0B58FB0041E03D15221294800F09AFB6368032B03D95421254800F093FBE36A002B03D15821224800F08CFB236B002B03D159211E4800F085FB07AA1300210051
:400FC00061C961C321C921C302AD290023001433C1CBC1C141CB41C10821535E0CAE3380144B1B6836215B5E07998C466344B370089B0D930B9B0A980096A26AE16AFFF794
:4010000053FF2B69E868002200920021FFF74CFF216B300000F0E8FA0023F25E002A05DB1F231A401E3B9340034A13600FB0F0BDEC2000101008000800E100E0F8B50500B6
:401040000F0016001C00002A03D1FD21224800F039FB224B1B68002B03D1FE211E4800F031FB1E4B1B682C2128004843181879435918012213004D68AB401B044568AA4020
:4010800015000269002A20D08F69002F1FD11268002A01DA002200E0114A002A19D132681204120C134333600369DE6001238B614C6204692B0C03D00A490B4800F002FB66
:4010C0002A04120CA260002004E0084802E0084800E00748F8BDC046EC2000100C08000801008A00BB0200006C20001004028A0007028A0070B504000D0016000F4B1B68CA
:40110000002B04D1AF2149000D4800F0DBFA0B4B1B682C2060431C18236A002B04D1B1214900074800F0CEFAE369B34204D9236AB6009D51002000E0024870BD0C080008EF
:40114000EC2000100A028A0070B582B0040000230193002804D1D221FF312D4800F0B2FA2369002B04D1E9214900294800F0AAFA6369002B04D1D421FF31254800F0A2FAAC
:40118000236A002B04D1EA214900214800F09AFA6269D5682B0C24D01B041360136820691C4B1A68B423D358C3181B68002B18DA01A9FFF765FD00280ED1019803681E0CFB
:4011C000FF221340E269934207D29B00226AD358002B02D0984700E0002631002069FFF70FFD2D042D0C0FD063691D601B68636A002B03D098470023636203E0A36A002BD0
:4012000000D098470023A36163691B6802B070BDEC2000101008000810B50400084B1B68002B04D1B221FF31064800F04BFA044B1B682C2060431818FFF786FF10BDC0460A
:401240000C080008EC20001010B50400094B1B689B6CC340DB0703D4BE21074800F032FA044B1B681B691034A402E3580F20184010BDC046100800082C210010134B1A6857
:401280003C23D35C83421DD9042904D94B1EFF3B9BB2132B18D8FF290CD91F2319400C4A0300C0339B009950D03080000423835000200AE007231940D0308000044BC1505E
:4012C000002002E0034800E002487047100800080000264001004A0070B5041E03D14A494A4800F0EFF9B023DB00494AD358002B00DA87E0474B22689A4203D94649434811
:4013000000F0E0F923689B039B0BE279002A02D08022520400E000221343B022D2003C498B50A2883D4B9A4204D98C218900374800F0C8F922893A4B9A4203D939493348B4
:4013400000F0C0F9A388DB04D90C23891B04364A13400B43354A2E498B50A37A0F2B04D98E218900294800F0ADF9E37A0F2B03D92F49264800F0A6F9A289284B9A4203D967
:401380002C49224800F09EF9A37A0F211940E27A1201FF2313400B43A289120226490A401343A27B1207C02189050A401343B122D20017498B50A379042B03D91F49134892
:4013C00000F080F9228A164B9A4204D9912189000E4800F077F90E4819494558194B1D40A3791B02E022D20013402B4343504558154B1D40238A1B040B4A13402B43435087
:40140000002000E0114870BD1F0200006C21001000002640FFFF030029020000FF1F0000FF010000310200000000FF0184050000390200003A02000000FF1F004302000022
:401440008C050000FFF8FFFFFFFF00FE03004A0070B505003149324A8B588020000603438B502C0003E0012000F020F9013CB223DB002A4AD3585B0701D4002CF3D1274977
:40148000B122D2008858274B03408020800503438B50002D01D0002C0CD02049B022D2008B588020000603438B5003E0012000F0FDF8013CB223DB00184AD358DB0701D4D5
:4014C000002CF3D1002D01D0002C08D01349B122D2008B58C020800503438B5013E00F4BB121C90058580F4A02408020800502435A5008395A58520052085A5008495A58FD
:40150000520052085A50002D03D0002C03D0002002E0002000E0044870BDC046000026408C050000FFFFFFCF02004A0070B505000C001A4B1B6828229A5C012A15D18208CD
:4015400007211000884327D19200AD1AED00FF20A8401B6820339A181168AC4023004B40184004004C40146016E03A229B5EDBB2994203D176210A4800F0A4F8074B1B685B
:401580001B68072215408022120615438022920194466444A400E55070BDC04610080008F421001070B504000D000B4B9A680B4B9A420CD1002904D13821FF31084800F0AC
:4015C00081F81034054BA400E058E55003E01034A400044BE05870BD00ED00E000000008F421001000000010F0B5474680B482B0061E01914AD04368032B03D93221264866
:4016000000F060F80023F05E002804DBB178FFF78DFF002400E0214C0023F15E7368002912DB88081E4FC0308000C55903221140C900FC3290468A4095439A014346134084
:401640008B402B43C35116E089B20F220A40083A92080632920013481018476803221140C900FF252A008A4097439A012B0013408B403B4343600B4B9A680B4B9A4206D102
:401680000023F05E0199FFF78DFF00E0034C200002B004BC9046F0BDF42100100100560000E100E000ED00E00000000810B5034B1B78584300F0BCF810BDC046D4000008B3
:4016C00001BEFEE770B50D00044C18220100200000F0C2FBA5610020FFF7F2FF00060008054B802212069A649B6C002B01DB002000E002487047C0460000274003004600D4
:40170000054B8022120198585B68FF221A4202D08023DB021843704700002640FEE7C04610B50A4B0268DA6142681A6282685A62C2689A620269DA6242691A6382695A6397
:40174000C2699A63FFF7EAFF10BDC04600060008F0B5474680B4002801D0192300E064238B429B415B42304D2C682268A826A45BA41822680327BA433B401A4322602C6876
:401780002268A45BA2181668284CA046264016602C682668AA229446A25A96193268BA43134333602A6813686546525BD3181A68444614401C60002805D010291BD921299F
:4017C0001BD8012024E0184B1B6855229A5C914215D956229A5C914213D957229A5C914211D958229A5C91420FD959229B5C99420DD804200CE000200AE0022008E00020C3
:4018000006E0012004E0022002E0032000E00520054A1268526813680F218B430343136004BC9046F0BDC04610080008FFFCFFFF0230800803D001300238FCD1C046C046A9
:401840007047EFF3108072B6704780F31088704710B5B0235B059B899BB2002B04D0B0235B059B899BB201E080235B0080225200934215D1184C23681968683A9B58C9181E
:401880000B680F208343963A13430B6021680C689C23CB58E318196881430A431A6019E00D4C2368196898229B58C918B02040050A4BC2580A4B13400A681343C0229200F5
:4018C00013430B60226811689C23D358CB18054A82581A6010BDC0461008000848180000FFFCFFFF4418000030B5B0235B059B899BB2002B04D0B0235B059B899BB201E0FF
:4019000080235B0080225200934215D1184C23681968683A9B58C9180B680F208343953A13430B6021680C689C23CB58E318196881430A431A6019E00D4D2B681968982215
:401940009B58C918B0246405C12040012258094B13400A681343C022920013430B602A6811689C23D358CB1822581A6030BDC04610080008FFFCFFFFB0235B059B899BB29A
:40198000002B04D0B0235B059B899BB201E080235B008022520093420DD1104B1B681A6898215B58D21811680D4B0B40C021C9010B43136011E0094B1B68196898229B58CA
:4019C000C918084BB0225205D258074B13400A681343C022920013430B60704710080008FF8FFFFF18180000FFFCFFFF30B5B0235B059B899BB2002B04D0B0235B059B8953
:401A00009BB201E080235B008022520093420DD1134B1B681A6898215B58D2181168114B0B408021C9010B43136018E00C4D2B68196898229B58C918B02464050A482258D2
:401A40000A4B13400A681343C022920013430B602A6811689C23D358CB1822581A6030BD10080008FF8FFFFF4C180000FFFCFFFF10B5B0235B059B899BB2002B04D0B023C4
:401A80005B059B899BB201E080235B0080225200934217D10020FFF7D7FBB0235B055B78002B04D0B0235B055B78DBB200E02123222B03D8002803D1013004E0012002E0E5
:401AC000002000E0012010BDF8B50700012803D93D493E48FFF7F6FDB0235B055B78002B04D0B0235B055B78DBB200E021239DB2B0235B059B899BB2002B04D0B0235B0569
:401B00009E89B6B201E0802676000020FFF79CFB002814D180235B009E4212D1222D12D82B4B1B685C682B4821582B4B19403B068022520413400B432350002404E0274C25
:401B400002E0264C00E0254C80235B009E4201D1222D03D880235B009E4232D01C4B1A683123D35C002B04D1C421FF311C48FFF7A9FD174B1B681D6A80235B009E4203D167
:401B8000002F05D0174A06E0002F03D0164A02E0164A00E0164A01212800FFF751F800280FD10B4B1A68B423D3585B191B68002BF7DBEB681B0E1B06A0221206934200D17A
:401BC00000242000F8BDC0464C0A0000382200101008000818F00000FFFFFFFE04004200AC1F0010010100300300000C010000300100000CF8B50500012804D982210901FE
:401C00002948FFF75FFDFFF733FF002849D0FFF718FE0700002D11D10021244B244AD150E823DB00B0225205D65CF6B20120FFF74BFF041E19D1FFF70BFE16E0B0225205C3
:401C40001C4BD0581A4B194958501B49565CF6B21A481A581F218A4314390A431A500320FFF724FDFFF7C2FE0024002C15D11049124A8B581F20834306401E438E50002D4E
:401C800002D1FFF779FE08E00720FFF70FFDFFF72BFE0020FFF718FF04003800FFF7D5FD00E0074C2000F8BD38220010307F00000000264010180000410700001CFF000071
:401CC00003004200042805D10B4A116804230B4313600FE0094B1A681168A023D358CB180006C022920410401860034A136804218B4313607047C04610E000E010080008B7
:401D00000749C02252008B589B009B088020C00503438B508B588020000603438B50704700002640014B18607047C04610080008002243088B4274D303098B425FD3030A77
:401D40008B4244D3030B8B4228D3030C8B420DD3FF22090212BA030C8B4202D31212090265D0030B8B4219D300E0090AC30B8B4201D3CB03C01A5241830B8B4201D38B03BF
:401D8000C01A5241430B8B4201D34B03C01A5241030B8B4201D30B03C01A5241C30A8B4201D3CB02C01A5241830A8B4201D38B02C01A5241430A8B4201D34B02C01A52416A
:401DC000030A8B4201D30B02C01A5241CDD2C3098B4201D3CB01C01A524183098B4201D38B01C01A524143098B4201D34B01C01A524103098B4201D30B01C01A5241C308B9
:401E00008B4201D3CB00C01A524183088B4201D38B00C01A524143088B4201D34B00C01A5241411A00D20146524110467047FFE701B5002000F006F802BDC0460029F7D08E
:401E400076E770477047C04603008218934202D019700133FAE77047030030B5002A0DD00C7801335D1E013A2C700131002CF5D19A189A4202D01C700133FAE730BD0000ED
:401E8000F8B5C046F8BC08BC9E467047F8B5C046F8BC08BC9E46704703000000010000000100000000000000050360000400000001000000000000000100000006046000B9
:401EC00008000000C8070008B101001073797374656D5F70736F63365F636D30706C75732E630000F4010000140004010A00090508000000630100002000000000000000EC
:401F000000000000000060000000000000000000000000000000000000000000220000000000000000000000600000000000000000000000000000000012000000050000A8
:401F40003000000000000000000000000000CCBA0000000000000000000000000000000013131D1D0400000000000000000000000006000000000000000000000000000041
:401F80000000000000000000C0000000000000000000000000000066000000000000000000000000000000000000000047656E6572617465645F536F757263655C50536F2E
:401FC00043365C70646C5C647269766572732F7065726970686572616C2F6970632F63795F6970635F6472762E68000047656E6572617465645F536F757263655C50536FF7
:4020000043365C70646C5C647269766572735C7065726970686572616C5C6770696F5C63795F6770696F2E630000000047656E6572617465645F536F757263655C50536FF9
:4020400043365C70646C5C647269766572735C7065726970686572616C5C6770696F5C63795F6770696F2E680000000047656E6572617465645F536F757263655C50536FB4
:4020800043365C70646C5C647269766572735C7065726970686572616C5C6970635C63795F6970635F6472762E68000047656E6572617465645F536F757263655C50536FAF
:4020C00043365C70646C5C647269766572735C7065726970686572616C5C6970635C63795F6970635F6472762E63000047656E6572617465645F536F757263655C50536F74
:4021000043365C70646C5C647269766572735C7065726970686572616C5C6970635C63795F6970635F706970652E630047656E6572617465645F536F757263655C50536FD1
:4021400043365C70646C5C647269766572735C7065726970686572616C5C70726F745C63795F70726F742E630000000047656E6572617465645F536F757263655C50536F8C
:4021800043365C70646C5C647269766572735C7065726970686572616C5C737973636C6B5C63795F737973636C6B2E630000000047656E6572617465645F536F7572636512
:4021C0005C50536F43365C70646C5C647269766572735C7065726970686572616C5C737973636C6B5C63795F737973636C6B2E680000000047656E6572617465645F536F0E
:40220000757263655C50536F43365C70646C5C647269766572735C7065726970686572616C5C737973696E745C63795F737973696E742E630000000047656E657261746586
:40224000645F536F757263655C50536F43365C70646C5C647269766572735C7065726970686572616C5C737973706D5C63795F737973706D2E630000000020400000244004
:40228000000000400000000000002340000030400000314000009F40000022400000104002020202020202020210101D800017007500FF0306020636041020000000000034
:4022C0007FC0000000040000000000000019324B647D00804000080B100000000000FF012002001F00800004FF081018001000140018001C4044484C500000000810000075
:402300000800000004000000041000000012000004210000002100000016000040114002C41300138013A013200000001C0000000000214000002540000001400000344095
:4023400000002440000031400000324000001F410000234000001140010101010101010101101010800019005500F0000501053B04101C01010000000FC0000000040000A0
:4023800001010101011D3A57789600082000101208000000001F00000010000F002000023F06080E00080009000A000B24282C303400000010000000900000008800000025
:4023C000080000008000000004F0000000F00000400200002005A000D00100018001A0012000000010000000000000000000001000000008C00000000C240010C000000866
:40240000400500003C060008D80100000048E80100127A0000093D0000093D0000093D0004000000A00F00000000D007E9000010C10000100000000010B50004400B27D046
:40244000144B1A68146AB023D15ACA00531AE3181B68002BF4DA3E220F4B1A600F4A104B1A60104B0621A322D20099500E4A98509B58084B1A68106AB023D15ACA00531A36
:40248000C31800225A60084B064AD358002BFADA10BDC04610080008040126401E1F000008012640000026401C05000010B54378FF2B20D100F042FA04000F4B1A6831230C
:4024C000D35C042B04D8C421FF310C4800F02EFA094B1A68116AB023D35A9B00CB18DB685A68116801230B4313601368DB07FCD4200000F003FA10BD10080008AC1F0010ED
:40250000F0B585B001900291544B1A683123D35C002B04D1C421FF31514800F007FA4F4B1B681E6AB4229A58971950229B5C002B77D000F0EBF9050003283CD1474B1A683D
:402540003123D35C062B04D8C421FF31444800F0EDF9424B1968B023CB5A5A00D21853000A6A94466344B4228A58D3181B68002B23DB002000F0BAF93A4B98421FD03A4BDD
:402580001A6900230021012000F0A0F9002803D0364C17E0013400E00024002000F0A6F9304B984202D0324B9C42F3D9304B9C4207D92E4C06E0002404E02C4C02E02B4C8E
:4025C00000E00024002C46D100F0B8F90390294B294AD358002B13DA234A0121300000F09DF900280ED10298FFF726FF019B002B0AD03B68002BFCDB00F070F9040004E0AE
:402600001A4C02E0194C00E01C4C032D05D10121002000F053F90028F9D1039800F06EF919E000F08BF905000F4A0121300000F075F9002809D1019B002B08D03B68002B53
:40264000FCDB00F04BF9040002E0084C00E00B4C280000F053F9200005B0F0BD10080008AC1F001001018800E807000805005200EF4902001C050000000026400100500013
:40268000F0B54F464646C0B4824B1A685468B0235B055B78002B04D0B0235B055B78DBB200E02123212B67D1B023D15ACB005B1A116A8C46634419680029F5DADD68022182
:4026C0002943D960B023D15ACB005B1A116A8C466344D968C9073ED5D9680904090C8C4684271168D559A84641440968090A0904FF26360431400D00882611688946915997
:402700008846C14449460968090A0906294365462943D9601168D359C9180A685E4B98461A4090252D012A430A605A4B99461A6813689C46925962441368414619400B00FB
:402740002B4313604B461A681568D15969180B689359EB181B684F4B1A68B021555AEB005B1B156AAC46634400255D60156A515ACA00531AEB185B68484A116904230B43B9
:402780001361012801D030BF00E020BF414B1A68B023D15ACB005B1A116A8C46634419680029F3DAB02149054978002904D0B02149054978C9B200E02121212932D1D9685E
:4027C000C90722D510688421525880180468324A1440DB681B0C1B02FF2109020B40234303602C4B19688823C8580B689C46604403681A400D6AB023CC5AE1000B1BEB18B6
:40280000DB681B0E1B021A430260224B1A68106AB023D15ACA00531AC318DA6802218A43DA6028E086235B00E358002B23D11C4807681C4BA321C9005E581B4A90461568D0
:402840001A4A0260062058503E21424611600631174A9950164B134AD358002BFADA154A86235B00E2500E4B1F60A323DB000D4AD6500D4B1D60074B1A68106AB023D15A57
:40288000CA00531AC31800225A600CBC90469946F0BDC04610080008FF00FFFF00ED00E00801264000002640040126401E1F00001C050000AAAAAAAA0000000001B40248CB
:4028C000844601BC604700BFCD0D001001B40248844601BC604700BF3D10001001B40248844601BC604700BF750A001001B40248844601BC604700BF590E001001B40248DB
:40290000844601BC604700BF4B18001001B40248844601BC604700BF3504001001B40248844601BC604700BF410C001001B40248844601BC604700BFC516001001B40248E3
:40294000844601BC604700BF4318001000000000000000000000000000000000000000000000000000000000000000000000000000000000000000000000000000000000FF
:402980000000000000000000000000000000000000000000000000000000000000000000000000000000000000000000000000000000000000000000000000000000000017
:4029C00000000000000000000000000000000000000000000000000000000000000000000000000000000000000000000000000000000000000000000000000000000000D7
:020000041008E2
:4000000000780408EB0208100D00000051030810510308105103081051030810000000000000000000000000000000004D0308104D030810000000004D0308104D030810DA
:400040004D0308104D0308104D0308104D0308104D0308104D0308104D0308104D0308104D0308104D0308104D0308104D0308104D0308104D0308104D0308104D03081000
:400080004D0308104D0308104D0308104D0308104D0308104D0308104D0308104D0308104D0308104D0308104D0308104D0308104D0308104D0308104D0308104D030810C0
:4000C0004D0308104D0308104D0308104D0308104D0308104D0308104D0308104D0308104D0308104D0308104D0308104D0308104D0308104D0308104D0308104D03081080
:400100004D0308104D0308104D0308104D0308104D0308104D0308104D0308104D0308104D0308104D0308104D0308104D0308104D0308104D0308104D0308104D0308103F
:400140004D0308104D0308104D0308104D0308104D0308104D0308104D0308104D0308104D0308104D0308104D0308104D0308104D0308104D0308104D0308104D030810FF
:400180004D0308104D0308104D0308104D0308104D0308104D0308104D0308104D0308104D0308104D0308104D0308104D0308104D0308104D0308104D0308104D030810BF
:4001C0004D0308104D0308104D0308104D0308104D0308104D0308104D0308104D0308104D0308104D0308104D0308104D0308104D0308104D0308104D0308104D0308107F
:400200004D0308104D0308104D0308104D0308104D0308104D0308104D0308104D0308104D0308104D0308104D0308104D0308104D0308104D0308104D0308104D0308103E
:400240004D0308104D0308104D0308104D0308104D0308104D0308104D0308104D0308104D0308104D0308104D0308104D0308104D0308104D0308104D0308104D030810FE
:400280004D0308104D0308104D03081010B5054C237833B9044B13B10448AFF300800123237010BD344C020800000000B0590810084B10B51BB108490848AFF300800848C2
:4002C000036803B910BD074B002BFBD0BDE81040184700BF00000000384C0208B059081018430208000000007047FFF7FDFF72B6104C114DAC4209DA21686268A368043BA2
:40030000A2BFC858D050FAE70C34F3E70B490C4A00209142BCBF41F8040BFAE709480A490860BFF34F8F01F099FB01F0E9F901F095F8FEE7B4590810CC590810344C02089D
:400340000C5302080040020808ED00E0FEE7FEE700B504207146084202D0EFF3098001E0EFF30880043002F03BFCFEE780B483B000AF78607B681B6843F000427B681A6061
:4003800000BF0C37BD465DF8047B704780B582B000AF7860044A7968044802F0B1FE034618460837BD4680BD845202080000674080B582B000AF786039603A6879680448A0
:4003C00002F0C0FF034618460837BD4680BD00BF0000674080B586B002AFF8600B467A60FB72FA7A054B00937B68F968044803F049F9034618461037BD4680BD845202088A
:400400000000674080B586B002AFF8600B467A60FB72FA7A054B00937B68F968044803F0C1F9034618461037BD4680BD845202080000674080B582B000AF7860044A7968A3
:40044000044803F045FA034618460837BD4680BD845202080000674080B586B002AF0346B9607A60FB73F97B054B00937B68BA68044803F073FA034618461037BD4680BD55
:40048000845202080000674080B582B000AF03463960FB71F979054B3A68054803F0DCFA034618460837BD4680BD00BF845202080000674080B586B000AF3B600346FB7101
:4004C0000B46BB7113467B710023FB73A048FFF75DFF78617B69002B01D000F09FFD9D499D48FFF765FF38613B699B4A934201D900F094FD9948FFF739FFFF2207F10F0379
:400500001146184600F030F91522FB7B9A4201D000F084FDFE2207F10F031146184600F023F9FA7B8E4B1A7000F0EAF9BB79012B04D10023184600F00FFA2BE0BB79022B71
:4005400004D12023184600F007FA23E0BB79042B04D14023184600F0FFF91BE0BB79082B04D16023184600F0F7F913E0BB79102B04D18023184600F0EFF90BE0BB79202BBE
:4005800004D1A023184600F0E7F903E04023184600F0E2F900F0F0F97B79032B04D10723184600F0F3F90BE07B79022B04D10323184600F0EBF903E00223184600F0E6F964
:4005C000684A7B7913707B6AB3F5805F04D20023184600F0EBF91EE07B6AB3F5005F04D22023184600F0E2F915E07B6AB3F5804F04D24023184600F0D9F90CE07B6AB3F5EC
:40060000804F04D16023184600F0D0F903E00023184600F0CBF93B68632B04D80023184600F0D4F941E03B68C72B04D80423184600F0CCF939E03B68B3F5C87F04D20823A1
:40064000184600F0C3F930E03B68B3F5487F04D20C23184600F0BAF927E03B68B3F57A7F04D21023184600F0B1F91EE03B68B3F5C86F04D21423184600F0A8F915E03B68E8
:40068000B3F5486F04D21823184600F09FF90CE03B68B3F5486F04D11C23184600F096F903E00023184600F091F93B6A752B04D80023184600F09AF91EE03B6AD62B04D882
:4006C0000123184600F092F916E03B6AB3F5CD7F04D80223184600F089F90DE03B6A40F29B12934204D10323184600F07FF903E00023184600F07AF9FB79184600F086F98E
:40070000FB79184600F092F9FB79184600F09EF9FB79184600F0AAF901231946012000F0B5F97B79012B04D902231946022000F0ADF97B79022B04D903231946032000F09D
:40074000A5F900F0E1F900BF1837BD4680BD00BF7458081084D71700A086010000006740C54F0208C44F020880B584B000AF78600B46FB70FF23FB60642200215720FFF768
:4007800029FEF860FB68002B2BD1FB7864211846FFF77AFEF860FB68002B24D1642201215720FFF72FFEF860FB68002B1DD1642279680120FFF750FEF860FB68002B07D0F2
:4007C000FB680F4A934203D0FB680E4A93420DD16420FFF72FFE0346002B07D10023FB6004E000BF02E000BF00E000BFFB68002B01D0FF23FB60FB6818461037BD4680BDAF
:400800000520AA000420AA0080B584B000AF03460A46FB711346BB71FF23FB60642200215720FFF7D7FDF860FB68002B22D1BB7964211846FFF728FEF860FB68002B1BD136
:40084000FB7964211846FFF71FFEF860FB68002B07D0FB680E4A934203D0FB680D4A93420BD16420FFF7E6FD0346002B05D10023FB6002E000BF00E000BFFB68002B01D0BF
:40088000FF23FB60FB6818461037BD4680BD00BF0520AA000420AA0080B584B000AF0346FB710B46BB7113467B710023FB72FF23FB60FA7907F10B0311461846FFF754FF04
:4008C000F860FB68002B0FD1FA7ABB791340DAB27B791343DBB2FB72FB7AFA7911461846FFF792FFF86000E000BFFB68002B01D0FF23FB60FB6818461037BD4680BD00BF69
:4009000080B582B000AF0023FB700923BF2140221846FFF7C1FF00F053FC78600EE00922FB1C11461846FFF71FFFFB7840221340DBB2002B0AD0012002F024F900F040FC6B
:4009400002467B68D31A632BE9D900E000BF00BF0837BD4680BD00BF80B582B000AF0346FB7108201F21FB791A46FFF795FF00BF0837BD4680BD00BF80B500AF0823EF21C6
:4009800010221846FFF788FF00BF80BD80B582B000AF0346FB710920F821FB791A46FFF77BFF00BF0837BD4680BD00BF80B582B000AF0346FB710A209F21FB791A46FFF761
:4009C0006BFF00BF0837BD4680BD00BF80B582B000AF0346FB710A20E321FB791A46FFF75BFF00BF0837BD4680BD00BF80B582B000AF0346FB710A20FC21FB791A46FFF79A
:400A00004BFF00BF0837BD4680BD00BF80B582B000AF0346FB710C22FB7911461846FFF7F3FE00BF0837BD4680BD00BF80B582B000AF0346FB710D22FB7911461846FFF750
:400A4000E3FE00BF0837BD4680BD00BF80B582B000AF0346FB710E22FB7911461846FFF7D3FE00BF0837BD4680BD00BF80B582B000AF0346FB711022FB7911461846FFF794
:400A8000C3FE00BF0837BD4680BD00BF80B582B000AF03460A46FB711346BB71FB79013B032B2BD801A252F823F000BFBD0A0810CB0A0810DD0A0810EB0A08101120F82116
:400AC000BB791A46FFF7E8FE19E011208F21BB791B01DBB21A46FFF7DFFE10E01220F821BB791A46FFF7D8FE09E012208F21BB791B01DBB21A46FFF7CFFE00E000BF00BFD8
:400B00000837BD4680BD00BF80B500AF042319460020FFF779FE052319460020FFF774FE062319460020FFF76FFE00BF80BD00BF80B582B000AF0023FB710422FB1D114671
:400B40001846FFF711FEFB7918460837BD4680BD80B582B000AF0023FB710622FB1D11461846FFF701FEFB7918460837BD4680BD80B586B000AF0023BB7200237B72002344
:400B8000FB820023BB8200237B8200237B6000233B60FF23FB600023FB72FFF7D9FF0346BB72FFF7C5FF03467B72BA7A7B7A9A4200F058817B7A9AB2BB7A9BB2D31A9BB270
:400BC000FB82B7F91630002B03DAFB8A20339BB2FB82A94B1B789AB2FB8A12FB03F39BB21A46520013449BB2BB82642200215720FFF7F0FB072364211846FFF745FCF86002
:400C0000FB68002B40F02581642201215720FFF7F9FBF860FB68002B40F01D810DE1BB8A7B82B7F91230202B10DD934B1B781A4613465B001344202292FBF3F103FB01F3B8
:400C4000D31A9BB2C3F120039BB27B82BA8A7B8AD31A9BB2BB82EBE0874B1B789BB21A469B00D31A9AB27B8A13449BB27B82B7F91230002B06D1B7F91430002B02D10123F8
:400C8000FB7201E00023FB727C4B93F830300133DAB27A4B83F83020784B93F8303003F00303DAB2754B83F830200023FB713B1D0233642219460020FFF7CEFBF8603B1D06
:400CC0000133642219460020FFF7C6FB0246FB681343FB60684B1B78012B0AD1391DFB7A64221846FFF7B8FB0246FB681343FB6009E03B1D642219460020FFF7ADFB02467B
:400D0000FB681343FB60FB68002B40F0A680391D3B460422184603F0EFFA3B68C3F311033B60564B93F8303019463B68534A42F82130514B1B78012B42D90023FB713B1D69
:400D40000233642219460020FFF786FBF8603B1D0133642219460020FFF77EFB0246FB681343FB60444B1B78022B0AD1391DFB7A64221846FFF770FB0246FB681343FB6078
:400D800009E03B1D642219460020FFF765FB0246FB681343FB60FB68002B60D1391D3B460422184603F0A8FA3B68C3F311033B60324B93F830303A683049043341F823204E
:400DC0002D4B1B78022B33D90023FB713B1D0233642219460020FFF73FFBF8603B1D0133642219460020FFF737FB0246FB681343FB60391DFB7A64221846FFF72DFB0246DC
:400E0000FB681343FB60FB68002B2AD1391D3B460422184603F070FA3B68C3F311033B60164B93F830303A681449083341F82320B7F91230002B3FF70FAFB7F91430002B23
:400E40003FF7EDAE6420FFF7F5FAF860FB68002B08E000BF06E000BF04E000BF02E000BF00E000BFFB68002B01D0FF23FB60FB8A18461837BD4680BDC44F0208904F0208CF
:400E800080B584B000AF0346FB7100F099F9F86000F096F90246FB68D21AFB799A4201D900230AE0FFF764FE0346012B01D1012303E0012001F066FEEAE718461037BD46A9
:400EC00080BD00BF80B500AFFA20FFF7D9FF0346002B07D0054B93F830301A46034B53F8223000E00023184680BD00BF904F020880B500AFFA20FFF7C3FF0346002B07D012
:400F0000054B93F83030044A043352F8233000E00023184680BD00BF904F020880B500AFFA20FFF7ADFF0346002B07D0054B93F83030044A083352F8233000E00023184661
:400F400080BD00BF904F020880B400AF054B93F831301A46034B53F822301846BD465DF8047B7047904F020880B400AF054B93F83130044A043352F823301846BD465DF856
:400F8000047B7047904F020880B400AF054B93F83130044A083352F823301846BD465DF8047B7047904F020880B483B000AF0C4B93F830200A4B93F83130D31ADBB2FB7189
:400FC00097F90730002B03DAFB790433DBB2FB71FB7918460C37BD465DF8047B704700BF904F020880B500AFFFF7DEFF0346002B10D0094B93F831300133DAB2064B83F85C
:401000003120054B93F8313003F00303DAB2024B83F8312000BF80BD904F020880B400AF72B6FEE780B483B000AF0346FB80B7F90630002B0BDB0949B7F906305B09FA88C1
:4010400002F01F02012000FA02F241F8232000BF0C37BD465DF8047B704700BF00E100E080B483B000AF0346FB80B7F90630002B0CDB0949B7F906305B09FA8802F01F02BF
:40108000012000FA02F2603341F8232000BF0C37BD465DF8047B704700E100E080B483B000AF786039607B683A689A6000BF0C37BD465DF8047B704780B483B000AF78603D
:4010C00039607B683A681A6100BF0C37BD465DF8047B704780B485B000AFF860B9607A60FA68BB689B01134403F598737A681A60FA68BB689B01134403F598731B6800BFD0
:401100001437BD465DF8047B704700BF80B485B000AFF860B9607A60FA68BB689B01134403F58A737A681A6000BF1437BD465DF8047B704780B500AF012200210448FFF7E9
:40114000C9FF044B1B680133024A136000BF80BD00003840C84F020880B500AF0849094801F0A2FC074BB3F900301846FFF778FF044BB3F900301846FFF754FF00BF80BD71
:40118000351108109853081080B500AF0A4A00210A4802F0DFFF01210848FFF77FFF40F2E73200210548FFF7B1FF01210348FFF783FF00BF80BD00BF8858081000003840FE
:4011C00080B400AF034B1B681846BD465DF8047B704700BFC84F020880B483B000AF78607B681B6843F000427B681A6000BF0C37BD465DF8047B704780B584B000AFF86049
:40120000B9607A60BB68002B02D07B68002B04D140F27351064801F0CFFC7A68B968F86801F028FE034618461037BD4680BD00BF0C53081080B584B000AFF8600B467A603F
:401240007B817B89B3F5997F02D37B68FF221A702D4BDA221A707B681B78832B20D0F22B4CD07C2B37D1284B7C225A707B681B791A46254B9A707B685A78234BDA707B89B4
:401280001A46F968214803F037F87B8904331E4AEA21D1547B8905331B4ADC21D1542EE0194B83225A707B681B791A46164B9A707B685A78144BDA707B689A78124B1A71EE
:4012C0007B68DA78104B5A710F4BEA229A710E4BDC22DA7113E00C4BDE225A700A4BAD229A70094BDE22DA70074BAD221A71064BEA225A71044BDC229A7100E000BF024B88
:4013000018461037BD4680BD5C4C0208604C020880B584B000AF78600023FB730023BB7317E07B681B781946104802F0F9FF7B681B78EA2B01D10123FB73FB7B002B05D01B
:401340007B681B78DC2B01D10123BB737B6801337B60BB7B83F00103DBB2002BE1D10A2002F0F6FF00BF1037BD4680BD4C53081090B585B000AF78600B46FB700123FB7366
:40138000FB7883F00103DBB2002B1DD0FFF79AFD03469AB27B681A807B689C1CFFF7BEFD03469BB223807B681C1DFFF7A1FD03469BB223807B6804331B884CF24F32934240
:4013C00044D80023FB7341E0FFF7D2FB37E0224B1B685B007A68D418FFF7B6FD03469BB223801D4B1B6864335B007A68D418FFF7CBFD03469BB22380174B1B68C8335B006D
:401400007A68D418FFF7B0FD03469BB22380124B1B68C8335B007A6813441B884CF24F32934201D80023FB73FFF7DCFD0A4B1B680133094A1360084B1B68642B05D0FFF721
:40144000B3FD0346002BC2D100E000BFFB7B18461437BD4690BD00BF504C020880B584B002AFFFF779FE62B6FFF78EFE814A8249824802F0FFFB38603B68002B01D000F0AE
:4014800023F97E48FFF7A8FE4FF48043019340F29B130093C823022208213C20FFF70AF801217748FFF764FF03461A46754B1A701923FB7115E0FB79193BFA79704931F82E
:4014C00012106F4A22F81310FB79AF33FA79C8326B4931F812106A4A22F81310FB790133FB71FB79632BE6D9674B4B221A6007E001216348FFF73CFF03461A46614B1A70EF
:40150000614B1B68642BF3D1604B93F90030012B4FD15F4B1A685F4B1B68D31A002BB8BF5B42DBB2092B03D9594B1B68002B1ED1594B1B785A1CD1B2574A11701A46554BC1
:401540001B68D9B2554B9954524B1B68504A1360514B1A78524BA3FB021399080B465B000B445B00D31ADAB24B4B1A7004E0494B1B680A3B464A13604A4B00221A600023FE
:40158000BB710BE0BB79454AD35C1A46454B1B681344444A1360BB790133BB71BB79052BF0D9404B1B683E4AA2FB03239B083D4A13603D4B93F90030012B3DD13B4B1B7809
:4015C0005A1CD1B2394A11701946394B1B6807EE903AF8EEE77A374A8B001344C3ED007A324B1B7803F00303DAB2304B1A70324B4FF000021A6000237B7110E07B792D4AB9
:401600009B00134493ED007A2B4BD3ED007A77EE277A294BC3ED007A7B7901337B717B79032BEBD9244B93ED007AF1EE006AC7EE267A214BC3ED007A052200211F4802F032
:4016400066FE1E4B7C221A701C4B02225A700D4B1A781A4B1A71194A32211948FFF7EAFD0246184B1A60174B1B681846FFF750FE1EE700BFD0520208D458081000006640CC
:40168000F04F0208564C0208504C0208D04F0208CC4F02086C520208544C020870520208ABAAAAAADC4F02087C520208554C02087852020848520208D44F0208645202083D
:4016C00016520208584C020880B400AF72B6FEE780B586B000AFF860B9607A6000237B617B681A46B9680548FFF786FD03467B617B6918461837BD4680BD00BF00006640F1
:4017000080B500AF0D4801F023FB00F01FF800F025F800220021042000F0B2FC084800F043FF084B1B6893F85130002B02D0064800F04EFF00F0ACFA00BF80BD7C550810E1
:40174000904D0208805202085453081080B400AF00BFBD465DF8047B704700BF80B491B000AFB04BD3F8803303F00F037B63AD4A7B6BD03352F8233003F007033B633B6BBA
:40178000042B3AD801A252F823F000BFA1170810A7170810AD170810B3170810BB170810A14BFB632CE0A14BFB6329E09F4BFB6326E09F4B1B68FB6322E09A4A7B6BC0335A
:4017C00052F8233003F01F03FB62FB6A112B07D0132B09D0102B0BD14FF4FA43FB630BE04FF40043FB6307E04FF40043FB6303E04FF4FA43FB6300BF02E08C4BFB6300BF66
:401800007B6B002B60D1874BD3F8903503F00103002B14BF0123002387F82B30814BD3F8883503F040531B0F032B0CBF0123002387F82A307B4BD3F8883503F040531B0FD3
:40184000002B07D0774BD3F8883503F040531B0F012B01D1012300E0002387F8293097F8293003F0010387F8293097F82930002B03D097F82B30002B03D197F82A30002BD5
:401880001FD0684BD3F88035C3F311037B62654BD3F88435C3F30C033B62624BD3F8803503F080731B0E0133FB61FA6B3B6AB2FBF3F37A6A02FB03F2FB69B2FBF3F3BB6375
:4018C00060E0FB6BBB635DE07B6B012B58D1554BD3F8403603F00103002B14BF01230023FB76504BD3F8003603F040531B0F032B0CBF01230023BB764A4BD3F8003603F0D8
:4019000040531B0F002B07D0464BD3F8003603F040531B0F012B01D1012300E000237B767B7E03F001037B767B7E002B02D0FB7E002B02D1BB7E002B1FD03A4BD3F8003669
:4019400003F07F037B61374BD3F8003603F4F8531B0A3B61334BD3F8003603F4F8131B0CFB60FB6B7A6902FB03F23B69B2FBF3F2FB68B2FBF3F3BB6304E0FB6BBB6301E0BF
:40198000FB6BBB63274BD3F8803303F030031B09BA6B22FA03F3BB63264ABB6B1360264BD3F8903003F47F431B0A0133BB60224B1B6903F07F431B0E01337B60BA6B7B68FC
:4019C000B2FBF3F31D4A1360BA6BBB68B2FBF3F3BB631B4ABB6B1360194B1B68194A1360184B1B6803F5742303F23F23164AA2FB03239B0CDAB2154B1A70124B1B6803F2E5
:401A0000E733134AA2FB03239B09124A1360114B1B68DB03104A136000BF4437BD465DF8047B70470000264000127A0000366E01984202089042020800002140944202080F
:401A40008C4202089C42020883DE1B43A4420208D34D6210A0420208A842020880B582B000AF01F05AF97860094A094BD3F8883043F47003C2F88830BFF34F8FBFF36F8FCD
:401A8000786801F04EF900BF0837BD4680BD00BF00ED00E080B500AF012000F013FF00BF80BD00BF80B483B000AF0346FB80B7F90630002B0BDB0949B7F906305B09FA8893
:401AC00002F01F02012000FA02F241F8232000BF0C37BD465DF8047B704700BF00E100E080B400AF084B1B681A68074B1B68D3F8843013441B6803F07F431B0EDBB2184606
:401B0000BD465DF8047B70478052020880B400AF084B1B681A68074B1B68D3F8843013441B6803F47F431B0ADBB21846BD465DF8047B70478052020880B582B000AF7860B1
:401B40000E4B1B6893F831301A467B689A4204D840F2C3110A4801F02FF8084B1B681A6A064B1B68B3F8B03019467B6803FB01F3134418460837BD4680BD00BF8052020876
:401B8000B853081080B483B000AF78607B68DB6818460C37BD465DF8047B704780B483B000AF7860084B1B68D3F8B4207B6813441B6803F00043DB0FDBB218460C37BD464E
:401BC0005DF8047B704700BF8052020880B584B000AFF860B9607A607B68002B04D140F29331074800F0E8FF7B681A46B968F86800F09CF9034618461037BD4680BD00BF27
:401C0000B853081080B584B000AF78601C4A7B6813601B4B1B68002B0BD0194B1B6802221A70174B1B68FF225A70154B1B6800225A80144B1B6893F85030002B1CD0114B42
:401C40001B68B3F938303B810023FB6007F108030D49184600F028FFB7F908301846FFF721FF084B1B6893F85130002B04D002220649012000F0EAFD00BF1037BD4680BDD7
:401C8000104F020880520208194602081D43020880B500AF0248FFF7B5FF00BF80BD00BF344F020880B485B000AF78607B682E4A93423FD02C4A93420ED8402B40D0402BA6
:401CC00004D8002B1FD0102B37D042E0802B3AD0B3F5807F3AD03CE0244A934219D0234A934206D8B3F1204F10D0214A93421DD02FE0204A934213D01F4A934213D01F4AE1
:401D000093420AD025E00023FB6025E00023FB6022E04FF4A403FB601EE0194BFB601BE0184BFB6018E0184BFB6015E04FF4A003FB6011E00C4BFB600EE0144BFB600BE00F
:401D4000134BFB6008E0134BFB6005E0064BFB6002E0114BFB6000BFFB6818461437BD465DF8047B704700BF06005200010000F0090000A0040000F0050000F0030000F0F9
:401D8000010052000200520003005200010050000200500005005200FF00520080B582B000AF134B7B600120FFF7C6FE03461846FFF7F4FE034683F00103DBB2002B12D0C9
:401DC0000C4B1B681846FFF76DFF78600A4B1B685B681A460123936000BF074B1B685B689B68002BF9D17B6818460837BD4680BD02005000144F02088052020880B582B04E
:401E000000AF786039603B681B0C1B04002B04D040F2BB21054800F0CFFE3B689AB27B689A6000BF0837BD4680BD00BFF853081080B582B000AF786039603B681B0C1B04E6
:401E4000002B04D040F2D521054800F0B5FE3B689AB27B685A6000BF0837BD4680BD00BFF853081080B483B000AF786039607B683A68DA6000BF0C37BD465DF8047B704789
:401E800080B483B000AF78607B68DB6818460C37BD465DF8047B704780B483B000AF7860084B1B68D3F8B4207B6813441B6803F00043DB0FDBB218460C37BD465DF8047B9A
:401EC000704700BF8052020880B483B000AF78607B681B6803F00043002B01DA002300E0034B18460C37BD465DF8047B704700BF01008A0080B584B000AF786039607868CD
:401F0000FFF7CAFF0346002B06D039687868FFF78FFF0023FB6001E0034BFB60FB6818461037BD4680BD00BF01008A0080B586B000AFF860B9607A60F868FFF7C5FF034631
:401F4000002B0AD17968F868FFF78CFFB968F868FFF754FF00237B6101E0034B7B617B6918461837BD4680BD01008A0080B584B000AF786039603B68002B03D199210C4830
:401F800000F01AFE7868FFF787FF0346002B08D07868FFF775FF02463B681A600023FB6001E0044BFB60FB6818461037BD4680BD3854081001008A0080B582B000AF786054
:401FC0000E4B1B6893F831301A467B689A4204D840F2C3110A4800F0EFFD084B1B681A6A064B1B68B3F8B03019467B6803FB01F3134418460837BD4680BD00BF805202082E
:402000007854081080B483B000AF78607B68DB6818460C37BD465DF8047B704780B584B000AFF860B9607A607B68002B04D140F29331074800F0C0FD7B681A46B968F8687D
:40204000FFF774FF034618461037BD4680BD00BF7854081080B483B000AF78607B681B6803F00043002B01DA002300E0034B18460C37BD465DF8047B704700BF01008A00CC
:4020800080B586B000AFF860B9607A60144B7B617B68002B0BD1BB68002B08D1F868FFF78BFF02460F4B1A6000237B6113E07B68002B0ED0BB68002B0BD00B4ABB68136081
:4020C000094A7B6853600849F86800F00FF8786101E0034B7B617B6918461837BD4680BD03018A00384F02083C4F020880B584B000AF78603960284BFB60284B1B6893F80E
:4021000031301A467B689A4202D8234BFB603EE03B68002B39D03B681B6803F01F03002B30D17868FFF748FF02461D4B1A603B6858683B681B68DB081A46002102F0E7F81B
:40214000174B1B6800211846FFF7D4FE144B1B683A6800211846FFF761FF0346002B0ED10F4B1B6800211846FFF7C4FE0346002B02D10023FB600AE00A4BFB6007E0094BD9
:40218000FB6004E0044BFB6001E0034BFB60FB6818461037BD4680BD03018A0080520208384F020801018A0080B588B000AF78600B46FB700023FB612F4BBB612F4B1B681B
:4021C0001846FFF71FFF03467B617B691A687B689A4249D97B685B093B613B695B017A68D31A012202FA03F3FB60FB7883F00103DBB2002B02D000F090FDF8611F4B1B68A8
:402200001846FFF727FF0346002B23D17B695A683B699B0013441A68FB681340002B11D07B695A683B699B0013447A6951683A6992000A441168FA68D2430A401A6000230A
:40224000BB6101E00E4BBB610C4B1B6800211846FFF750FEFB7883F00103DBB2002B05D0F86900F05EFD01E0064BBB61BB6918462037BD4680BD00BF03018800384F0208E9
:402280000201880004018A0080B586B000AF7860164B1B681846FFF7B5FE03463B613B691A687B689A421AD97B685B09FB60FB685B017A68D31A012202FA03F3BB603B6966
:4022C0005A68FB689B0013441A68BB681340002B02D0074B7B6104E0064B7B6101E0064B7B617B6918461837BD4680BD384F0208010188000001880004018A0080B483B01A
:4023000000AF0346FB80B7F90630002B0BDB0949B7F906305B09FA8802F01F02012000FA02F241F8232000BF0C37BD465DF8047B704700BF00E100E080B582B000AF786079
:402340000E4B1B6893F831301A467B689A4204D840F2C3110A4800F02FFC084B1B681A6A064B1B68B3F8B03019467B6803FB01F3134418460837BD4680BD00BF805202086B
:40238000B854081080B582B000AF78600C4B1B6893F832301A467B689A4204D840F2DF11084800F009FC064B1B681B6A1A467B6880335B01134418460837BD4680BD00BF44
:4023C00080520208B854081080B584B000AFF860B9607A607B681B0C1B04002B04D04FF4FF710C4800F0E8FBBB681B0C1B04002B04D040F2FF11074800F0DEFB7B681A04B5
:40240000BB689BB21A43FB689A6000BF1037BD4680BD00BFB854081080B483B000AF78607B68DB6818460C37BD465DF8047B704780B483B000AF78607B681B6818460C3711
:40244000BD465DF8047B704780B584B000AFF860B9607A607B681B0C1B04002B04D04FF426710D4800F0A8FBBB681B0C1B04002B04D040F29921084800F09EFB7B681A0453
:40248000BB689BB21A43FB681A60FB681B6800BF1037BD4680BD00BFB854081080B582B000AF786039603B681B0C1B04002B04D040F2BB21054800F07FFB3B689AB27B685D
:4024C0009A6000BF0837BD4680BD00BFB854081080B483B000AF786039607B683A68DA6000BF0C37BD465DF8047B704780B483B000AF7860084B1B68D3F8B4207B6813444E
:402500001B6803F00043DB0FDBB218460C37BD465DF8047B704700BF8052020880B483B000AF78607B681B0C18460C37BD465DF8047B704780B483B000AF78607B689BB25C
:4025400018460C37BD465DF8047B704780B582B000AF786039603B68002B04D140F2B631054800F029FB39687868FFF7FFFC034618460837BD4680BDB854081080B483B065
:4025800000AF78607B681B6803F00043002B01DA002300E0034B18460C37BD465DF8047B704700BF01008A0080B483B000AF7860064B1B68002B02D1044A7B68136000BF05
:4025C0000C37BD465DF8047B704700BF444F0208B0B590B002AF78607B68002B03D152212F4800F0E9FA7B689B69072B03D956212B4800F0E1FA7B68DB6A002B03D1582197
:40260000274800F0D9FA7B681B6B002B03D15921234800F0D1FA7B6807F11C0403F114050FCD0FC42B6823607B6807F108041D460FCD0FC42B6823601A4B1B68B3F936308A
:402640009AB2FB699BB213449BB21BB23B863B6A7B63B86A7B68D96A7B689A6AFC6A07F130030093234600F01FF87869BA690023009313460022002100F016F87B681A6B29
:4026800007F130031146184600F00EFAB7F930301846FFF733FE00BF3837BD46B0BD00BFF85408108052020880B586B000AFF860B9607A603B60254B1B68002B03D1B52148
:4026C000234800F079FA214B1A68FB682C2101FB03F313447B613B68DAB27B691A603B681B0ADAB27B695A603B681A0C7B699A607B691B681846FFF71FFE02467B691A61A4
:402700007B695B681846FFF73DFE02467B695A617B6958697B6999687B699B681A46FFF753FE7B697A68DA617B69BA681A627B6900229A613B6A002B04D03B6AB3F90020CB
:402740007B699A8100BF1837BD4680BD444F0208F854081080B58AB000AFF860B9607A603B607B68002B03D1FD21344800F024FA334B1B68002B03D1FE21304800F01CFAE0
:402780002F4B1A68FB682C2101FB03F313443B622B4B1A68BB682C2101FB03F31344FB61FB695B68012202FA03F3BB61BB691B04BB613B6A5B68012202FA03F37B613B6AC5
:4027C0001B69002B32D0FB699B69002B2BD13B6A1B691846FFF7D2FE0346002B20D17B681B689AB27B681A607B681A68BB691A437B681A603B6A1B697A6811461846FFF7DF
:4028000067FEFB6901229A61FB693A685A623B6A1B6979691846FFF741FE00237B6207E0084B7B6204E0074B7B6201E0064B7B627B6A18462837BD4680BD00BFF854081013
:40284000444F020807028A0004028A0080B586B000AFF860B9607A60174B1B68002B04D14FF4AF71154800F0A7F9134B1A68FB682C2101FB03F313443B613B691B6A002B35
:4028800004D14FF4B1710D4800F096F93B69DA697B689A4209D93B691A6A7B689B001344BA681A6000237B6101E0054B7B617B6918461837BD4680BD444F0208F85408100B
:4028C0000A028A0080B584B000AF78600B4B1B68002B04D140F2B111094800F06DF9074B1A687B682C2101FB03F31344FB60F86800F008F800BF1037BD4680BD444F020803
:40290000F854081090B589B000AF78600023FB600023FB617B68002B04D140F2D1114C4800F04AF97B681B69002B04D14FF4E971474800F041F97B685B69002B04D140F2DD
:40294000D311434800F038F97B681B6A002B04D14FF4EA713E4800F02FF97B685B691846FFF75AFDB861B869FFF7D8FD0346002B3ED07B685C69B869FFF7D0FD03461A4615
:4029800000212046FFF760FD7B681B691846FFF7ADFD0346002B2BD07B681B6907F10C0211461846FFF7D2FD0346002B1AD1FB681B681B0CFB61FB681B68DBB27B617B6888
:4029C000DA697B699A420DD97B681A6A7B699B0013441B683B613B69002B03D0FA683B69104698477B681B69F9691846FFF782FAB869FFF79FFD0346002B1FD07B685C695E
:402A0000B869FFF797FD0346002219462046FFF71BFD7B685B6A002B06D07B685B6A98477B6800225A6206E07B689B6A002B02D07B689B6A98477B6800229A617B685B6983
:402A40001846FFF7F5FC00BF2437BD4690BD00BFF854081080B483B000AF03463960FB80B7F90630002B0ADB0D49B7F906303A68D2B25201D2B20B4483F800230AE00949B9
:402A8000FB8803F00F03043B3A68D2B25201D2B20B441A7600BF0C37BD465DF8047B704700E100E000ED00E080B584B000AF786039600023FB607B68002B1DD07B685B68AD
:402AC000072B03D93221104800F076F87B68B3F900207B685B6819461046FFF7BBFF0B4B9B680B4A934209D17B68B3F900303968184600F011F801E0064BFB60FB681846A3
:402B00001037BD4680BD00BF3855081000ED00E0004002080100560080B584B000AF03463960FB80134B9B68134A934216D13B68002B04D140F23711104800F03DF8B7F903
:402B4000063010330C4A52F82330FB60B7F90630103309493A6841F8232006E0B7F906301033074A52F82330FB60FB6818461037BD4680BD00ED00E0004002083855081099
:402B80000000081080B582B000AF0346FB80FB88054A127802FB03F3184600F0B5F800BF0837BD4680BD00BFA442020880B483B000AF786001BEFEE780B582B000AF78606C
:402BC000396018227968044801F0D6FB034A3B6813600020FFF7EAFFA04B0208B84B020880B584B000AF78607B681B68414A13607B685B683F4A53607B689B683D4A936019
:402C00007B68DB683B4AD3607B681B69394A13617B685B69374A53617B689B69354A93617B68DB69334AD361334B9B6A314A1362314BDB6A2F4A53622F4B5B6A2D4A93623D
:402C40002D4B5B6B2B4AD3622B4B9B6B294A1363F1EE103AFB60FB6803F09003002B43D07B681B6A234A53637B685B6A214A93637B689B6A1F4AD3637B68DB6A1D4A13643B
:402C80007B681B6B1B4A53647B685B6B194A93647B689B6B174AD3647B68DB6B154A13657B681B6C134A53657B685B6C114A93657B689B6C0F4AD3657B68DB6C0D4A13661A
:402CC0007B681B6D0B4A53667B685B6D094A93667B689B6D074AD3667B68DB6D054A13677B681B6E034A536700F008F800BF1037BD4680BDBC4B020800ED00E080B400AF91
:402D0000FEE700BF000000000230800803D001300238FCD100BF00BF7047EFF3108072B6704780F31088704780B400AF4FF0B0535B78DBB2002B04D04FF0B0535B78DBB2BC
:402D400000E021231846BD465DF8047B704700BF80B483B000AF7860044A7B68136000BF0C37BD465DF8047B704700BF8052020880B483B000AF786039607B683A68C3F800
:402D8000402200BF0C37BD465DF8047B704700BF80B483B000AF78607B68D3F80832C3F3080318460C37BD465DF8047B704700BF80B483B000AF78607B681B6803F400632F
:402DC000002B01D0802300E0402318460C37BD465DF8047B704700BF80B483B000AF78607B68D3F8003203F00F03072B94BF01230023DBB218460C37BD465DF8047B7047A8
:402E000080B588B000AFF860B9607A60F868FFF7E3FF0346002B14D0BB68BB610023FB610AE0BA69FB6913441B781946F868FFF79FFFFB690133FB61FA697B689A42F0D356
:402E400014E0BB687B610023FB610BE0FB695B007A6913441B881946F868FFF789FFFB690133FB61FA697B689A42EFD300BF2037BD4680BD90B587B000AFF860B9607A6078
:402E8000F868FFF795FF0446F868FFF781FF0346E31A7B617A697B689A4201D97B687B617A69B968F868FFF7ABFF7B6918461C37BD4690BD80B483B000AF78607B68D3F826
:402EC000403318460C37BD465DF8047B704700BF80B483B000AF786039607B683A68C3F8402200BF0C37BD465DF8047B704700BF80B483B000AF78607B68D3F8043243F4F0
:402F000080327B68C3F804227B68D3F8043223F480327B68C3F804227B68D3F8043200BF0C37BD465DF8047B704700BF80B483B000AF78607B68D3F8C02F40F66D331340C3
:402F400018460C37BD465DF8047B704780B582B000AF786039603B6823F4366323F00D03002B04D040F2F1310648FFF725FE7B683A68C3F8C02F7B68D3F8C03F00BF083791
:402F8000BD4680BDEC56081080B483B000AF78607B68D3F8002F40F21733134018460C37BD465DF8047B704780B582B000AF786039603B6823F4457323F00303002B04D09D
:402FC00040F20C510648FFF7F7FD7B683A68C3F8002F7B68D3F8003F00BF0837BD4680BDEC56081080B483B000AF78607B68D3F8402F40F6FF13134018460C37BD465DF877
:40300000047B704780B582B000AF786039603B6823F41F6323F00F03002B04D040F252510548FFF7C9FD7B683A68C3F8482F00BF0837BD4680BD00BFEC56081080B483B020
:4030400000AF78607B681B6823F000427B681A607B6800229A667B680022DA667B681B6843F000427B681A607B681B6800BF0C37BD465DF8047B704780B582B000AF78604B
:4030800039603B68062B02D93B68102B04D940F28D510948FFF790FD7B681B6E23F0F0023B68013B1B01DBB21A437B681A6600BF0837BD4680BD00BF3057081080B582B06D
:4030C00000AF786039603B68042B02D93B68102B04D940F2AA510948FFF76EFD7B681B6E23F00F023B68013B03F00F031A437B681A6600BF0837BD4680BD00BF3057081099
:4031000080B586B000AFF860B9607A60BB681B78012B05D0BB681B7A002B01D0012300E00023FB75FB7D03F00103FB75FB68002B05D0BB68002B02D07B68002B01D17C4B1F
:40314000F1E0BB681B78012B0BD0BB681B78022B07D0BB681B78032B03D050217548FFF72BFDBB685B78002B02D0BB685B7900E00023002B03D051216E48FFF71DFDBB68BE
:40318000DB785BB2002B03DA52216A48FFF714FDBB681B7903F00103002B03D053216548FFF70AFDBB681B69102B03D954216148FFF702FDBB68DB68102B03D955215D4848
:4031C000FFF7FAFCBB685B79002B02D04FF4803200E00022BB68DB79002B02D04FF4807300E00023134343F40062FB681A60BB689B7983F00103DBB2002B02D04FF40062A2
:4032000000E00022BB681B69013B03F00F031A43BB68DB68013B1B01DBB21A43BB681B789B071A43FB681A66FB7D002B02D040F2073201E040F20712FB68C3F80023FB7D42
:40324000002B01D03C4A00E03C4AFB681A67BB685B78002B01D07F2200E00022FB68C3F80423BB68DB785B00DAB2BB681B791B0403F47F031A43FB68C3F81023FB68304A71
:40328000C3F80022BB689B78002B01D0402200E00122FB68C3F80422FB680022C3F8C82EFB680022C3F8882EFB680022C3F8C82FFB680022C3F8882FFB680022C3F8082F85
:4032C000BB681B78022B02D040F2D11200E00022FB68C3F8482FBB685A787B681A70BB689A787B685A707B684FF080525A607B6800229A607B6800229A617B6800221A62FB
:403300007B6800221A647B680022DA637B6800221A637B680022DA627B6800225A647B6800229A64002318461837BD4680BD00BF0120AA007057081003002A0013102A004C
:403340000701010080B58CB000AFF860B9607A607B68002B04D140F213218948FFF72CFCBB68002B03D0BB68864A934204D94FF405718348FFF720FC0023FB62FB681B6ED9
:4033800003F040439B0F012B10D17968F86800F011F9F862FB68D3F8003323F40072FB68C3F80023FB68784A1A67E3E0012387F82B300823FB610823BB610023FB75BB6835
:4033C000002B03D0BB686F4A934203D9012387F82B3042E0BB686D4A934213D87B686C4A93423AD97B686B4A934236D841F288337B6241F288333B620023FB75002387F801
:403400002B302AE0BB68644A934213D87B68634A934222D97B68624A93421ED84FF4C8637B624FF461733B620023FB75002387F82B3012E07B685B4A93420ED97B685A4A90
:4034400093420AD84FF41B737B624FF4BE733B620123FB75002387F82B3097F82B3083F00103DBB2002B00F08580504A7B68B2FBF3F33B617A6A3B69B2FBF3F3FB613B6970
:40348000FA6902FB03F27B6A9A4202D2FB690133FB61FB69102B01D91023FB61FB690F2B94BF01230023BB753A6A3B69B2FBF3F3BB613B69BA6902FB03F23B6A9A4202D2B9
:4034C000BB690133BB61BB69102B01D91023BB61FA69BB6913447A68B2FBF3F3FB621EE0BB7D002B08D0FB690F2B11D8FB690133FB610023BB750BE0BB690F2B08D8BB69CC
:403500000133BB61FB690F2B94BF01230023BB75FA69BB6913447A68B2FBF3F3FB62FA6ABB689A4204D9FA69BB6913441F2BD7D9FB7D002B0BD0FB68D3F8003343F4007283
:40354000FB68C3F80023FB68194A1A670AE0FB68D3F8003323F40072FB68C3F80023FB68094A1A67F969F868FFF786FDB969F868FFF7A4FDFB6A18463037BD4680BD00BFFA
:403580007057081040420F0013102A00A0860100AFA6170000D43000801A0600DF527700809698007F81DA0040AD890100CA9A3B03002A0080B584B000AF786039603B6878
:4035C000002B04D14FF431712448FFF7F5FA0023FB607B681B6E03F040439B0F012B23D13B681F4A934206D93B681E4A934202D81D4BFB602CE03B681C4A934206D93B68C2
:403600001B4A934202D81B4BFB6021E03B681A4A934206D93B68194A934202D8184BFB6016E00023FB6013E03B68002B10D07B681B6E03F0F0031A097B681B6E03F00F038B
:4036400013440233BB603A68BB68B2FBF3F3FB60FB6818461037BD4680BD00BF70570810DF52770020AEEA00801A0600AFA617000050C300A0860100FFB2F10040084E0527
:4036800040420F0080B588B000AFF860B9603B601346FB71BB6803F08003002B04D040F2C9613C48FFF788FA3B683B4A934204D940F2CA613748FFF77FFAFB79002B07D001
:4036C000FB79012B04D040F2CB613248FFF774FA324BFB610021F868FFF794FCBB6A5B68B3F1805F4BD13B684FF47A7202FB03F37B61BB6A2A4A5A60FB79012B0CBF012330
:403700000023DAB2BB6A5A7340F21711F868FFF74BFC0421F868FFF719FCF868FFF7E8FBBB685B00DAB2FB7913431946F868FFF7CFFBFB6802229A66F868FFF725FC02468F
:4037400040F207131340BB61F868FFF74BFC034603F0C003BA691343BB6107F11403184600F0C2F90246BB691343BB61BB69002BE2D0BA6AB969F86800F0D4F9F86140F278
:40378000D111F868FFF73EFCFB6918462037BD4680BD00BF70570810378941000220AA000000131080B588B000AFF860B9603B601346FB71BB6803F08003002B04D040F2F9
:4037C0002A713F48FFF7F8F93B683E4A934204D940F22B713A48FFF7EFF9FB79002B07D0FB79012B04D040F22C713548FFF7E4F9354BFB61BB6A5B6803F48013002B59D00A
:403800000023BB613B684FF47A7202FB03F37B61BB6A2E4A5A60FB79012B0CBF01230023DAB2BB6A5A73FB685B6E03F02003002B01D0092200E00122FB689A66FB685B6E26
:4038400003F02003002B0FD105E007F11403184600F04AF9B861BB69002B05D1FB689B6E03F00103002BF0D1BB69002B1CD1BB685B00DAB2FB7913431946F868FFF728FB2D
:40388000F868FFF781FB024640F207131340BB6107F11403184600F027F90246BB691343BB61BB69002BEBD0BA6AB969F86800F039F9F861FB6918462037BD4680BD00BF95
:4038C00070570810378941000220AA000000131080B588B000AFF860B9607A60BB681C4A934204D940F28D711A48FFF765F91A4BFB617B685B6803F48013002B22D0BB6840
:403900004FF47A7202FB03F37B61FB6818229A66F868FFF739FB024640F211131340BB6107F11403184600F0DFF80246BB691343BB61BB69002BEBD07A68B969F86800F0E5
:40394000F1F8F861FB6918462037BD4680BD00BF37894100705708100220AA0080B588B000AFF8607A603B600B46FB727B68002B04D140F2D9713548FFF71EF93B68344A90
:40398000934204D940F2DA713048FFF715F9FB7A002B07D0FB7A012B04D040F2DB712B48FFF70AF92B4BFB61BB6A5B68B3F5881F47D13B684FF47A7202FB03F33B61F868A4
:4039C000FFF7B4FA034603F00403002B14BF01230023FB76F868FFF7D7FA024640F2011313407B6107F11003184600F07DF802467B6913437B61FB7E83F00103DBB2002B72
:403A000002D07B69002BDAD0FB7E002B0AD0F868FFF750FA0346DAB27B681A700521F868FFF794FABA6A7969F86800F07BF8F861FB69002B05D1FB7A002B02D1FB6804220E
:403A40009A66FB6918462037BD4680BD70570810378941000220AA0080B588B000AFF8607A603B600B46FB727B681C4A934204D940F633011A48FFF79FF81A4BFB613B68E2
:403A80005B68B3F5A01F24D17B684FF47A7202FB03F37B61FB7A1946F868FFF719FAF868FFF772FA024640F207131340BB6107F11403184600F018F80246BB691343BB61B9
:403AC000BB69002BEBD03A68B969F86800F02AF8F861FB6918462037BD4680BD37894100705708100220AA0080B584B000AF78600023FB607B681B68002B0ED00120FFF734
:403B000041F87B681B685A1E7B681A607B681B68002B02D14FF00043FB60FB6818461037BD4680BD80B586B000AFF860B9607A600023FB74BB68002B04DA3D4B7B610123DD
:403B4000FB7460E0BB6803F0C003002B09D0394B7B61FB6800229A667B684FF080525A6051E0BB6803F48073002B04D0324B7B610123FB7447E0BB6803F00103002B17D0AA
:403B80002E4B7B617B685B682D4A93420DD1FB681B6E03F08043002B0CBF01230023FB747B684FF080525A602DE00123FB742AE0BB6803F00203002B09D07B685B68204A0B
:403BC000934201D11F4B00E01F4B7B611BE000237B61BB6803F01003002B04D07B684FF080525A600FE07B685B68154A93420AD17B685B7B002B02D04FF4881201E04FF463
:403C0000A0127B685A60FB7C002B07D0F868FFF715FA7B684FF080525A6004E040F21711F868FFF7C1F97B6918461837BD4680BD0320AA000820AA000720AA000620AA004A
:403C4000000013100420AA000520AA0080B483B000AF78607B681B6803F40063002B01D0802300E0402318460C37BD465DF8047B704700BF90B587B000AFF860B9607A6090
:403C8000FB68002B02D0BB68002B01D18A4B58E2BB681B78002B0BD0BB681B78012B07D0BB681B78022B03D03F218448FEF784FFBB685B7B022B1BD0BB685B7B032B17D087
:403CC000BB685B7B042B13D0BB685B7B052B0FD0BB685B7B062B0BD0BB685B7B072B07D0BB685B7B082B03D040217448FEF764FFBB689B7B002B0BD0BB689B7B022B07D0BA
:403D0000BB689B7B032B03D041216C48FEF754FFBB6893F82130002B08D0BB6893F82130012B03D042216548FEF746FFBB6893F82830002B08D0BB6893F82830012B03D093
:403D400043215E48FEF738FFBB681B78002B03D0BB681B78012B0ED1BB685B68072B03D9BB685B68102B01D9012300E0002303F00103DBB227E0BB689B7F002B22D0BB687A
:403D80005B68012B19D0BB685B68022B15D0BB685B68032B11D0BB685B68042B0DD0BB685B68052B09D0BB685B68062B05D0BB685B68072B01D0012300E0002303F001036A
:403DC000DBB200E00023002B03D045213B48FEF7F3FEBB689B68042B03D9BB689B68092B03D946213548FEF7E7FEBB685B69FF2B03D947213148FEF7DFFEBB689B69FF2B50
:403E000003D948212D48FEF7D7FEBB689B7C002B12D0BB681B78002B07D1BB689B68092B03D1BB689B7B002B01D0012300E0002303F00103DBB200E00023002B03D04A2184
:403E40001E48FEF7B9FEBB685B6B23F4366323F00D03002B03D04C211848FEF7ADFEBB68DB6B23F4EE6323F00303002B03D04D211248FEF7A1FEBB681B78022B09D1BB68E5
:403E80009B7F83F00103DBB2002B02D000237B6103E0BB685B68013B7B61BB681B7F002B02D04FF4803200E00022BB689B68082B06D84FF4006304E00160AA0034580810E6
:403EC00000231A437B6903F00F03134343F00072FB681A60BB681C6BF868FFF7B7FE03469C4203D362219948FEF766FEBB689C6BF868FFF7ABFE03469C4203D3632193488D
:403F0000FEF75AFEBB685C6AF868FFF79FFE03469C4203D364218D48FEF74EFEBB681B781B0603F04072FB681A64BB685B7F002B01D0402200E00022BB689B7C002B02D0CF
:403F40004FF4806300E000231A43BB681B7C002B02D04FF4807300E000231A43BB685B7C002B02D04FF4007300E000231A43BB68DB6A013B1B0403F470231A43BB685B7BBE
:403F8000013B03F007031A43BB689B7B1B0103F030031A43FB689A64BB681B7B002B02D04FF4807200E00022BB68DB7B002B03D1BB681B78022B01D1012300E00023002BC6
:403FC00002D04FF4007300E000231A43BB689B68013B03F00F031A43FB68C3F80023BB685B69DAB2BB689B691B0403F47F031A43FB68C3F81023BB68DA6AFB68D3F800332C
:4040000003F00F0303339A4203D3BB68DB6A102B03D97A214D48FEF7CFFDBB68DB7F002B05D0BB681B78012B01D1012300E00023002B02D04FF4807200E00022BB685B7B9E
:40404000013B03F007031A43BB689B7B1B0103F030031A43FB685A64BB681B7B002B02D04FF4807200E00022BB689B68013B03F00F031A43BB681B78012B02D14FF4803355
:4040800000E000231A43FB68C3F80022BB681B6BDAB2FB68C3F80423BB6893F82030002B02D04FF0007200E00022BB6893F82130012B02D14FF0807300E000231A43BB6885
:4040C00093F82830012B02D14FF4803300E000231A43BB685B6ADBB21A43FB681A65BB689B6BDAB2FB68C3F80422BB685A6B40F66D331340FA68C2F8C83FBB68DA6B40F20D
:4041000073731340FA68C2F8883F7B68002B17D07B6800225A607B6800221A607B6800229A607B680022DA607B6800221A627B680022DA627B6800221A637B68044A5A63C0
:40414000002318461C37BD4690BD00BF34580810EFCDAB0080B487B000AFF860B9607A60644B7B61FB68002B00F0BD807B68002B00F0B9807B685B681B029AB27B689B687A
:404180009B0403F480231A437B68DB681B0403F440331A437B681B691B0603F0E0631A437B681B7F002B01D0012300E000231A43F968BB6804339B010B441A607B68DB68FF
:4041C000002B08D1FA68BB689B01134403F5847300221A6015E07B68DB68012B09D17B681A68F968BB689B010B4403F584731A6007E0FA68BB689B01134403F584730122E9
:404200001A607B681B69002B11D17B685A69F968BB689B010B4403F586731A607B689A69F968BB689B010B4403F588731A607B681A68F968BB689B010B4403F58A731A600B
:404240007B689B6CB3F1FF3F20D07B689B6A03F00F027B681B6B1B0203F470631A437B689B6B1B0403F470231A437B681B6C1B039BB21A437B689B6C1B01DBB21A43F96877
:40428000BB689B010B4403F590731A607B685B6A03F003027B68DB6A1B0103F030031A437B685B6B1B0203F440731A437B68DB6B9B01DBB21A437B685B6C9B0003F00C0351
:4042C0001A43F968BB689B010B4403F592731A607B681A6AF968BB689B010B4403F59C731A6000237B617B6918461C37BD465DF8047B70470100B60010B5431E0A44914204
:4043000004D011F8014B03F8014FF8E710BD02440346934202D003F8011BFAE7704700000FB40A4B13B51C6824B1A36913B9204600F076F805AB049AA1680193204600F062
:4043400081F902B0BDE8104004B070470C43020838B5084B1C68054624B1A36913B9204600F05EF8A26829462046BDE8384000F021BC00BF0C43020810B5034642B111F805
:40438000014B03F8014B013A002CF7D11A4400E010BD934202D003F8014BFAE710BD0000014900F0A9B800BFA14F0810002310B5044603604360836081814366C2810361C5
:4043C00043618361194608225C30FFF7A0FF054B6362054BA362054BE362054B2462236310BD00BF414C0810634C08109B4C0810BF4C081070B568234D1E5D430E4605F111
:40440000740100F097F8044640B1002180E842000C30A06005F16802FFF779FF204670BD836910B5044633BB8364C3640365124B124A1B688262984204BF0123836100F0D1
:404440001FF86060204600F01BF8A060204600F017F80022E06004216068FFF7A7FF01220921A068FFF7A2FF02221221E068FFF79DFF0123A36110BD18590810A143081015
:40448000F8B51C4B1E68B369074613B93046FFF7C7FF4836B4687368013B04D4B4F90C507DB16834F8E733680BB13668F2E704213846FFF79FFF30600028F6D10C233B6072
:4044C000F8BD4FF6FF73E3810123A38165662560A560656025616561A5610822294604F15C00FFF714FF6563A563A564E5642046F8BD00BF185908102DE9F84380468946DA
:4045000000F14804002694B1A5686768013F0CD4AB89012B07D9B5F90E30013303D029464046C84706436835F0E72468EBE73046BDE8F88370B5CD1C25F0030508350C2D4E
:4045400038BF0C25002D064601DBA94202D90C23336046E000F014FE234B1C681A462146A1B10B685B1B0ED40B2B03D90B60CC18CD501EE08C420DBF63684B68636013606E
:4045800018BF0C4615E00C464968E9E7174C23681BB9304600F044FB20602946304600F03FFB431C18D0C41C24F00304A0420DD12560304600F0E5FD04F10B00231D20F0F5
:4045C0000700C31A0ED05A42E25070BD211A304600F026FB0130EBD10C233360304600F0D0FD002070BD00BF884F0208844F02089368013B002B10B4936009DA9469A342B2
:4046000002DBCBB20A2B03D15DF8044B00F05CBB1368581C10601970C8B25DF8044B7047F8B506460F461446D518AC4208D03A4614F8011B3046FFF7DBFF431CF5D100E061
:404640000020F8BD2DE9F04F9DB00C4617460393064618B183690BB9FFF7E2FE7F4B9C4201D1746808E07E4B9C4201D1B46803E07C4B9C4208BFF468A38918070CD52369AD
:4046800053B10023099320238DF8293030238DF82A30DFF8D4B144E02146304600F07AFB0028EED04FF0FF30D5E0039A111D12680391002A80F28C80524243F00200079236
:4046C000049098F800302E2B00F08480032298F80010654800F004FD48B14023CBEB000003FA00F0049B1843049008F1010898F800105E488DF82810062208F1010700F00B
:40470000EFFC002800F09580594B002B40F08880039B073323F0070308330393099B53440993B846454615F8013B1BB9B8EB07090FD003E0252BF9D0A846F3E74B463A46B0
:4047400021463046FFF76CFF01307FD0099B4B44099398F80030002B78D000234FF0FF3204930793059206938DF853301A930127052229783F4800F0B3FC05F10108049B1C
:4047800038B13C4A801A07FA00F0184304904546EEE7D90644BF20228DF853201A0744BF2B228DF853202A782A2A3FF47EAF079A00210A20A846013598F80030303B092B66
:4047C00003D800FB02320121F4E700293FF479AF079276E798F801302A2B0BD1039B1A1D1B680392002BB8BF4FF0FF3308F1020805936BE70023059308F1010019460A2516
